:0C0000000C94EC010C9400000C94000027
:10000C000C9400000C9400000C9400000C94000064
:10001C000C9400000C9400000C9400000C94270429
:10002C000C9400000C9400000C9400000C94DA0367
:10003C000C9400000C9400000C9400000C94000034
:10004C000C9400000C9400000C9400000C94000024
:10005C000C9400000C9400000C9400000C94000014
:10006C000C9400000C9400000C9400000C94000004
:10007C000C9400000C9400000C9400000C940000F4
:10008C000C9400000C9400000C9400000C940000E4
:10009C000C9400000C9400000C9400000C940000D4
:1000AC000C9400000C9400000C9400000C940000C4
:1000BC000C9400000C9400000C9400000C940000B4
:1000CC000C9400000C9400000C9400000C940000A4
:1000DC000C9400000C9400000C9400000C94000094
:1000EC000C9400000C9400000C9400000C94000084
:1000FC000C9400000C9400000C9400000C94000074
:10010C000C9400000C9400000C9400000C94000063
:10011C000C9400000C9400000C9400000C94000053
:10012C000C9400000C9400000C9400000C94000043
:10013C000C9400000C9400000C9400000C94000033
:10014C000C9400000C9400000C9400000C94000023
:10015C000C9400000C9467040C9400000C940000A8
:10016C000C9400000C9400000C940000F2F1F0EFE1
:10017C00EEEDF3FBA9AAABACADAE000000000000A5
:10018C00000000000000000000000000000048001B
:10019C00000000463F400000454941470A01020368
:1001AC0004050607080944434A004B424C0B0C0D4E
:1001BC000E0F101112131415161718191A1B1C1DDB
:1001CC001E1F2021222324000000000000252627CA
:1001DC0028292A2B2C2D2E2F30313233343536371B
:1001EC0038393A3B3C3D3E000100434845434B21E6
:1001FC000D00434C454152210D004F5344204F4EAE
:10020C00210D004F5344204F4646210D0072616E64
:10021C006765206F6620636F6C756D6E2069732047
:10022C00317E32370D00436F6C20506F696E7465F0
:10023C0072203A200072616E6765206F6620726FC3
:10024C007720697320317E31320D00526F77205048
:10025C006F696E746572203A200043484154210D39
:10026C00005469746C6520697320746F6F206C6F17
:10027C006E6721284D61783A3135290D0054495467
:10028C004C45210D004F534420434F4E4E45435493
:10029C00203A204F4B0D004F4E54494D4552204FA4
:1002AC004E0D004F4E54494D4552204F46460D00C1
:1002BC004F4E54494D4552205345540D0044415422
:1002CC0045205345540D005345434F4E44203A208E
:1002DC003000454E434F444552204F4E0D00454E85
:1002EC00434F444552204F46460D00454E434F4424
:1002FC0045522056414C55452052455345542121D9
:10030C000D0025342E33664D00002D4E414E00005D
:10031C0001002D4E414E00494E4600007B005F25EA
:10032C00780108000024F60108000824FE010900E9
:10033C00102406020A0019240F02190023241902A2
:10034C0019003C2419020F005524320202006424C7
:10035C00FC0116006624410216007C2441020F00A9
:10036C00922457020200A124FC010700A324660278
:10037C001C00AA246D020800C62489020200CE24A7
:10038C00FC010100D226F4011200D02491020C00D1
:10039C00E224A3020D00EE24AF020D00FB24BC02EC
:1003AC000A000825C9020B001225D3020C001D25DA
:1003BC00DE020D002925EA0217003625F70212008D
:1003CC004D2591020100D8261C030000F894EE275D
:1003DC00E8BFE9BFEABFF091CC01F860F093CC0123
:1003EC00F8EDF4BFE093A200A0918000AD7FA16076
:1003FC00F4BFA093800080E090E1A0E0B0E2ED9328
:10040C000197E9F7E8E2F3E085919591009761F0A7
:10041C00A591B59105901590BF01F00105900D9235
:10042C000197E1F7FB01F0CF8BBFE0E0E0B9E1B958
:10043C00E2B9E3B9E4B9E5B9E6B9E7B9E8B9E9B9BC
:10044C00EAB9EBB9ECB9EDB9EEB9EFB9E1E02E2EA2
:10045C00E0E03E2EE1E04E2EE0E05E2E6E2E7E2E93
:10046C008E2E9E2EAE2EBE2ECE2EDE2EEFEFEDBF9E
:10047C00EFE2EEBFC0E0D4E20C9497091A930A9312
:10048C000FB7F894E0915000E160E0935000E091D8
:10049C004100E0781E2FE8EDE4BF10934100E0919D
:1004AC006800EE7FE0936800E0915100E170E1F3A9
:1004BC00E0914000E87F1E2FE8EDE4BF1093400070
:1004CC00E0915000E17EE0935000E091B400EC7FAD
:1004DC00E093B4000FBFE4C41A930A931FB7F894C7
:1004EC00E0918000ED7FE1600E2FE8EDE4BF00931A
:1004FC008000E0918100ED7FE1600E2FE8EDE4BF1C
:10050C00009381001FBFCCC4E0E0E0938001E09336
:10051C008101E0938201E0938301E0938401E093F5
:10052C008501E0938601E0938701E0918801E078F2
:10053C00E0938801E0E0E0938901E0918A01E078A2
:10054C00E0938A01E0E0E0938B01E0918C01E0788C
:10055C00E0938C01E0E0E0938D01E0938E01E09359
:10056C008F01E091B400EF7CE093B4000895E0E0DB
:10057C00E0930406E0930006E0931006E093110666
:10058C00E0931206E0931306E0931406E09315062D
:10059C00E0931606E0931706E0910906E07FE093DE
:1005AC000906E0E0E0930A06E0930B06E0932406CC
:1005BC00E0932006E0933006E0933106E093320698
:1005CC00E0933306E0912906E07FE0932906E0E012
:1005DC00E0932A06E0932B06E0E1E0934406E0EB7F
:1005EC00E0934006E0E0E0935006E0935106E09380
:1005FC005206E0935306E0935406E0935506E8E167
:10060C00E0935606E0E0E0935706E0914906E07F60
:10061C00E0934906E0E0E0934A06E0934B06E8E1FC
:10062C00E0936406E8EBE0936006E0E0E09370068C
:10063C00E0937106E0937206E0937306E093740600
:10064C00E0937506E0937606E0937706E0916906F1
:10065C00E07FE0936906E0E0E0936A06E0936B06C6
:10066C00E0938406E0938006E0939006E093910675
:10067C00E0939206E0939306E0918906E07FE09385
:10068C008906E0E0E0938A06E0938B06E093E407AA
:10069C00E093E007E093F007E093F107E091E907BE
:1006AC00E07FE093E907E0E0E093EA07E093EB07F3
:1006BC000895E0E1E093B200E2E3E093B300089523
:1006CC00A881B981EC91E07FEC931996ECE0DDC048
:1006DC001A930A931FB7F894E0E0F8E0FA93EA93C0
:1006EC00EFDFE0910008E07FE160E0930008E0912B
:1006FC000108E870E0930108E0910308E071E093D1
:10070C000308E0910608E07FE160E0930608E091C1
:10071C000708E070E0930708E0919008EE7FE09303
:10072C009008E0919900EE7F0E2FE8EDE4BF009366
:10073C009900E0918008E07CE0938008E0918308C8
:10074C00E87EE0938308E0E0E0938208A4E8B8E058
:10075C000A2EAC91E0918408E470EA2BA02DEC9366
:10076C00E0910C08E0930C08E0E0F0E0E093200846
:10077C00F0932108EFE1FEE4E0932608F0932708BC
:10078C00E0E0F0E0E0932808F0932908E0932A08D1
:10079C00F0932B08E0932C08F0932D08E0932E088F
:1007AC00F0932F081FBF7CC3EA93FA93EFB7EA9339
:1007BC00F40131964F01E0E8F0E0E815F90514F486
:1007CC0088249924E991EFBFF991E99118951A932E
:1007DC00E0915000E460E0935000E0915100E4702F
:1007EC00E1F3E0914300E17FE560E0934300E091A9
:1007FC000004E87FE09300041FB7F894E091010433
:10080C00E170E1F7E0E0F4E0E0930A04F0930B040C
:10081C00E0E0F0E0E0930804F0930904E0930C04AA
:10082C00F0930D041FBFE0910004E87FE160E093BA
:10083C000004E0910204E07FE160E093020419916E
:10084C0008956A937A93AA93BA93EA93FA93EFB7BB
:10085C00EA93019AA1E8B6E20E948613EF5FFF4F7C
:10086C006F4F7F4F0E948B13E991EFBFF991E99184
:10087C00B991A991799169911895A881B98114962A
:10088C00E0E0EC93A881B9811396EC93229608953D
:10089C00E8E0E0936506E3E0E093A509E091A309A5
:1008AC00E07CE061E093A309EBE0E093A609E0E9CA
:1008BC00E093A709E091A409E07EE861E093A40924
:1008CC000895AA93EA93FA93EFB7EA931A930A93CB
:1008DC001091A1090091A009E12FEC71E1F4E091D4
:1008EC008D26EF5FE0938D26E150F0E0EB57F94D4C
:1008FC000083A0918D26A83019F4E0E0E0938D26BA
:10090C00A0918F26AF5FA0938F26A83021F4E0E052
:10091C00E0938F26029A0E94F00E00830E3321F48E
:10092C00039AE0E0E093AF26A091AF26AE3110F031
:10093C00E0E003C0E091AF26EF5FE093AF260991B2
:10094C001991E991EFBFF991E991A9911895E0916D
:10095C00A109E072E1F3E881E093A00964C1E0ED44
:10096C00E093C008E091C108EC7FE093C1080895C2
:10097C00E881E093C308E091C208E078E1F3E091EC
:10098C00C30851C1E0EDE093C009E091C109EC7FCF
:10099C00E093C1090895E881E093C309E091C2098D
:1009AC00E078E1F3E091C3093EC10E94F60EE881C4
:1009BC00EA93DEDF0E94000FB4C21A930A930E94DE
:1009CC00F60E81E08A95F1F7E0E0EA93D1DF0E2F85
:1009DC001127E0E1E09345068DE08A95F1F7198146
:1009EC0008819FC21A930A930E940A0FECEEF0E062
:1009FC00FA93EA93E2DF8F010F7E1070ECE6F0E0E1
:100A0C00FA93EA931A930A93D0DF0E94140F0E9470
:100A1C00140FCBDFE2E0F0E0FA93EA93E6E2F0E0C9
:100A2C000E94190F3DC2E0E1E093460681E08A95F1
:100A3C00F1F7E5E0EA939CDFAC81BD81EEE10E9429
:100A4C00E9120E941D0FA030E1E0BE0710F4E0E0B7
:100A5C0001C0E1E0EA938CDF0E94000FE6E0F0E0D9
:100A6C00FA93EA93AE81BF81EEE10E94E912AC8168
:100A7C00BD81EA0FFB1F0E94190FE7E0F0E0FA932B
:100A8C00EA93EA81FB810E94190F26960895EEE104
:100A9C00E093AF26A091AF26A13050F00E94F00E4B
:100AAC00A0E0A083E091AF26E150E093AF26F2CF17
:100ABC00039808955A924A923A922A92E091A2256A
:100ACC000E94220F3296FA93EA93F1013296FA932E
:100ADC00EA93E091AA250E94220F3196FA93EA93A9
:100AEC00F10131960E94290F0E94220F3396FA933E
:100AFC00EA93F10133960E94290F0E94330FA091C3
:100B0C00B026B091B126199734F0E0E0E093B0260E
:100B1C00E093B12609C0E091B026F091B126319650
:100B2C00E093B026F093B126E0E0F4E216C00E9408
:100B3C00140F0E94140F39DFE8E0F4E20EC00E949B
:100B4C000A0FE0E1F4E209C0E0E0F0E0FA93EA9386
:100B5C000E94140F2ADFE9E1F4E2FA93EA93BBD482
:100B6C000895A881A03321F40E94380F1F011DC0E5
:100B7C00A881A13329F40E94380F3A961F0115C0A1
:100B8C00A881A23371F4A0919426A83328F0E3E253
:100B9C00F4E20E943D0F04C00E94380F74961F01AE
:100BAC0004C0ECE3F4E20E943D0FE5E5F4E20E94A0
:100BBC003D0FD1010E94410FD1010E94490FD1017B
:100BCC000E94560FE4E6F4E22BC0A881A03321F476
:100BDC000E94380F2F0115C0A881A13371F4A09188
:100BEC009426A33328F0E6E6F4E20E943D0F04C0FD
:100BFC000E94380F3A962F0104C0ECE7F4E20E94F1
:100C0C003D0FE2E9F4E20E943D0FD2010E94410F38
:100C1C00D2010E94490FD2010E94560FE1EAF4E280
:100C2C00FA93EA9358D4219608950E94B21301E0E6
:100C3C0010E00E31E0E01E0744F50E945E0F31F427
:100C4C00F901EF56F94DA081AD3009F01BC0F90147
:100C5C0031972E0E3F1E2150304000240216030601
:100C6C0064F4F10131971F015A924A923A922A92F6
:100C7C000E94660F21503040F0CFE3EAF4E20E946C
:100C8C003D0F05DF0F5F1F4FD4CF0E94B91349C131
:100C9C000E94B21303E010E00E31E0E01E078CF569
:100CAC000E945E0F31F4F901EF56F94DA081AD3081
:100CBC0009F024C0F90133976E0E7F1EE2E1F0E0DB
:100CCC006E167F061CF0EAEAF4E214C021503040A4
:100CDC002330E0E03E0764F0F30131973F010E94BE
:100CEC00700F7A926A920E94660F21503040F0CFBA
:100CFC00E6ECF4E2FA93EA93EED3C9DE0F5F1F4FF2
:100D0C00CBCF0E94B9130DC10E94750FE8E8EA938E
:100D1C0042DEE1E4EA933FDE0E94750FE0E90E94B7
:100D2C007C0FE0E1E0936406E0E0E0936406E0E22F
:100D3C00EA9331DEE0E1E093640608951A930A9396
:100D4C0000E010E0F8010E941D0FEC91E03049F139
:100D5C00F8010E941D0FEC91EA93F9DD0E94830FBC
:100D6C00F801AE81BF81AE0FBF1FEC910E948E0FB8
:100D7C00E091B226F091B32631960E94930FF801C0
:100D8C00EC54F94D0F01F8010E941D0FEC91D001AC
:100D9C00EC93F801EB54F94DA0E0A0830F5F1F4FCB
:100DAC00D1CF0E94830FE0917F250E94330FE091F9
:100DBC00B226F091B326E01BF10B0E94930FEEECE0
:100DCC00F4E20E943D0F19810881ABC00E94980F7C
:100DDC00E0E8F1E561E070E00E945E138F01A09104
:100DEC00D326A73120F400240016010611F4E0E00C
:100DFC0003C0E091D326EF5FE093D326E091D22697
:100E0C00EE5F0E94A30FE09199250E94330F0E9480
:100E1C00AF0FA091D326BB270E94B30F0E94AF0F38
:100E2C00A091D326B0E00E94BB0F3AC00E94980F4D
:100E3C00E0E1FEE060E070E00E945E138F010E9432
:100E4C00C30FDB9724F400240016010639F4E0E00C
:100E5C00E093D426E093D526B9DF07C0E091D426E1
:100E6C00F091D52631960E94C80FE091D226EB5F07
:100E7C000E94A30FE09199250E94330F0E94AF0F9F
:100E8C000E94C30F0E94B30F0E94AF0F0E94C30FAA
:100E9C000E94BB0FE091D226F0E03397E093D2266C
:100EAC0009911991089524970198A091D326A831FE
:100EBC0018F00E94CD0F35C0A0918126B0918226EA
:100ECC008091832690918426ECE3F0E060E070E062
:100EDC000E945E130E949513E091D226E95F0E9456
:100EEC00A30F0E94D70F0E945E13E157FA4DE081C9
:100EFC000E94330F0E94AF0F0E94D70F0E941F1346
:100F0C00E157FA4DE0810E94330FE091D226F0E0D8
:100F1C003697E093D2260E94E00F0E94AC1309F49E
:100F2C0085DF24960895A0919126A13441F4A091D7
:100F3C009226A43521F4A0919326AD3009F009C076
:100F4C0083E48A95F1F7E0EDF4E20E943D0F9FDD1A
:100F5C00E7C1A0919126A33441F4A0919226AB3421
:100F6C0021F4A0919326AD3009F003C0A3DD8FDDF1
:100F7C00D7C1A0919126A33441F4A0919226A23519
:100F8C0021F4A0919326AD3009F003C0D0DD7FDDB4
:100F9C00C7C1A0919126AF3441F4A0919226AE34F2
:100FAC0021F4A0919326AD3009F003C0C8DD6FDDAC
:100FBC00B7C1A0919126AF3441F4A0919226A634EA
:100FCC0021F4A0919326AD3009F003C0BDDD5FDDA7
:100FDC00A7C1A0919126A33481F4A0919226AC34A0
:100FEC0061F4A0919326A03041F0A0919426A030FA
:100FFC0021F0A0919526AD3009F006C0E091932622
:10100C00EA93AFDD44DD8CC1A0919126A23581F429
:10101C00A0919226A73561F4A0919326A03041F0BF
:10102C00A0919426A03021F0A0919526AD3009F026
:10103C0006C0E0919326EA93C8DD29DD71C1A09129
:10104C009126A43541F4A0919226A23521F4A091C9
:10105C009326AD3009F014C0049B02C0049801C063
:10106C00049A049B06C0E3E1E093D226E2EEF4E29C
:10107C0002C0EEEEF4E2FA93EA932DD208DD50C1F1
:10108C00A0919126A435C1F4A0919226A335A1F488
:10109C00A0919326A03081F0A0919426A03061F00D
:1010AC00A0919526A03041F0A0919626A03021F079
:1010BC00A0919726AD3009F020C0E3E1E093D22651
:1010CC00049A0E94E30F3197EA0FE093D326E09144
:1010DC0095260E94EC0FAAE0B0E00E94EF12DF010F
:1010EC00E09196260E94EC0F0E94EF0F6FDEEBEF63
:1010FC00F4E20E943D0FCBDC13C1A0919126A435E4
:10110C0081F4A0919226A83461F4A0919326A0308A
:10111C0041F0A0919426A03021F0A0919526AD30FD
:10112C0009F009C00E94E30F3197EA0FE093D32630
:10113C004DDEADDCF5C0A0919126A43581F4A091D3
:10114C009226AD3461F4A0919326A03041F0A09189
:10115C009426A03021F0A0919526AD3009F00FC057
:10116C00E09193260E94EC0FAAE0B0E00E94EF12EF
:10117C00DF010E94380F0E94EF0F89DCD1C0A091D3
:10118C009126A43401F5A0919226A435E1F4A09106
:10119C009326A030C1F0A0919426A030A1F0A0918C
:1011AC009526A03081F0A0919626A03061F0A091F8
:1011BC009726A03041F0A0919826A03021F0A09164
:1011CC009926AD3009F04AC0EAE1F0E00E94F50F33
:1011DC000E94FA0FFA93EA93E09198260E948E0FE0
:1011EC000E94FF0F0E940210E09197260E948E0F22
:1011FC000E94FF0F0E940210E0918E250E94330F77
:10120C000E94FF0F0E940210E09196260E948E0F02
:10121C000E94FF0F0E940210E09195260E948E0FF3
:10122C000E94FF0F0E940210E0918E250E94330F46
:10123C000E94FF0F0E940210E09194260E948E0FD4
:10124C000E94FF0F0E940210E09193260E948E0FC5
:10125C00E8E0F5E20E943D0F1ADC62C0A0919126F5
:10126C00A43541F4A0919226AA3321F4A09193269F
:10127C00A03009F405C0E2E0F0E03F0109DD50C008
:10128C00A0919126A43541F4A0919226A53421F485
:10129C00A0919326AD3009F008C00E94CD0FE2E179
:1012AC00F5E20E943D0FF3DB3BC0A0919126A534E3
:1012BC0041F4A0919226AE3421F4A0919326AD3046
:1012CC0009F015C0009B02C0009801C0009A009B59
:1012DC0007C0E2E0F0E00E94930FEDE1F5E202C0FE
:1012EC00E9E2F5E2FA93EA93F6D0D1DB19C0A091CA
:1012FC009126A53441F4A0919226A23521F4A09117
:10130C009326AD3009F007C00FDDE6E3F5E20E944D
:10131C003D0FBDDB05C0E0919126E03009F085DC86
:10132C00089530E0F894E091A200E873E1601E2F7C
:10133C00E8EDE4BF1093A200E0E0E093A1000E946E
:10134C0072020E9444020E948A020E94BD020E9404
:10135C005F030E946E033BDA9BDAE0EBF9E0FA9351
:10136C00EA938BDAE0EAFAE0FA93EA9386DAF7DAB0
:10137C0009DBCADCEDE4F5E20E943D0F33DB789427
:10138C00039B05C0A091AF26A23008F0CCDD049BD6
:10139C0002C0019901C001C086DD009B07C0D401C9
:1013AC00EAE0F0E00E945013309709F092C0E0E0C0
:1013BC00E0936406E8EEEA93EEDA0E94750FE8E635
:1013CC000E947C0FBE2E0E940610AE2E0E940610AC
:1013DC00DE2E0E940610CE2EE0E1E0936406EB2D8B
:1013EC000E940A10DF01CB01E8E10E94C512DF0167
:1013FC00CB01EA2D0E940A100E94D1120E94B41255
:10140C007F936F93FF93EF93ED2D0E940A10DF01F2
:10141C00CB01E8E00E94C512AF91BF918F919F91D3
:10142C000E94B412DF01CB01EC2DFF276627772732
:10143C00EF7FFF7F607070700E94B412E0937D2686
:10144C00F0937E2660937F2670938026EFE5F6E27C
:10145C00FA93EA93EEE0F3E0FA93EA93E0917D26B7
:10146C00F0917E2660917F26709180260E947311E8
:10147C00ACE9B4EC80EA9EE30E94FD11DF01CB01E4
:10148C00E0E0F0E06AEF73E40E944B120E949A13C2
:10149C0084E060D328968AEF90E00197F1F700E0A2
:1014AC000E3178F40E9412100F01E15AF94DA0810F
:1014BC00F001EC54F94DE081EA1709F43F5F0F5F3E
:1014CC00EFCF3E3129F0EFE5F6E2FA93EA9336DC02
:1014DC0030E056CFFFCF1A93A981BA81ED91A98341
:1014EC00BA831E2FE03019F01A9331DAF5CFEAE007
:1014FC00EA932DDA1881239608951A930A93AA81F8
:10150C00BB8112960E947C13309729F1AA81BB8172
:10151C0014960E947C138F01309761F00230E0E04A
:10152C001E07C0F0F80131978F01AA81BB81149678
:10153C00ED93FC93AA81BB8112960E9415103197F2
:10154C00AC81A083AA81BB810E947C13FF2312F083
:10155C000E94151006C0AA81BB81EFEFFFEFED933F
:10156C00FC9319810881259608952497E0E0E8837F
:10157C00E983E0E8EA83EFE3EB830E94B213EE85A4
:10158C00FF85EF3FAFEFFA0749F4E885F985FA9349
:10159C00EA93E6E1F3E00E941B10BAC0EF3FAFE71D
:1015AC00FA0749F4E885F985FA93EA93E7E1F3E061
:1015BC000E941B10ADC0AB85A73010F0E6E0EB87A6
:1015CC001B85E12F1150E03019F00E941F10F9CF4C
:1015DC00EC85FD856E857F850E94AC1321F430E08F
:1015EC000E941F102EC03B850E942E1009F010F493
:1015FC000C940B0B0E941F100E942E1028F00E94BE
:10160C0039100E943E10F8CF0DC00E942E1040F4ED
:10161C000E9439100E944A100E9451103150F5CF8F
:10162C000E941F10EC85FD856E857F850E945610EB
:10163C000E9451100E942E1020F00E9439100E941E
:10164C003E1010E0EB85E117B8F1AC81BD818E81C5
:10165C009F810E945D100E9456100E949A130E9456
:10166C00350EEC83FD836E837F830E9439100E94BC
:10167C004B120E943A110E2F0E946410E02FE05D75
:10168C00EC93E02FFF27662777270E947311AC811C
:10169C00BD818E819F810E94FD110E9439100E9494
:1016AC006B100E945110E12F1F5FE03059F60E9421
:1016BC006410EEE2EC93C6CF0E9470103197AA85AD
:1016CC00A08330302CF43195A885B985EDE203C0A8
:1016DC00A885B985EBE2EC930E9470100E94701003
:1016EC003197BF01A32FEAE00E940213E05DDB01FA
:1016FC00EC930E9470103197BF01A32FEAE00E9477
:10170C004413E05DDB01EC93A885B985E0E0EC9334
:10171C000E94B91360960895EF9761970E94B013D9
:10172C0010E0FE01E85AFF4F0190F081E02DE887B0
:10173C00F987FE01EA5AFF4F0190F081E02DEE830C
:10174C00FF83AE81BF81E0E0F0E0ED93FC93DE011E
:10175C00A45ABF4F0E9415103197E4912E2FE03000
:10176C0011F40C94A70DE12FE03039F4253211F46B
:10177C0011E002C00E947610E3C1E130C1F42532C1
:10178C0019F40E947610DBC112E0E0E0ED8B00E072
:10179C002D3211F401E0D4C12B3219F4EBE2ED8BB4
:1017AC00CFC1203219F4E0E2ED8BCAC102C0E230A5
:1017BC0039F450E013E0203311F40068C1C102C0C9
:1017CC00E33091F4203310F02A3308F007C0AAE07C
:1017DC005A9F502DE22FE0535E0FB2C140E02E32E3
:1017EC0011F414E0ADC10FC0E43099F4203310F0C3
:1017FC002A3308F008C00062AAE04A9F402DE22F6D
:10180C00E0534E0F9DC12C3619F4026015E098C1BF
:10181C0004C0E53011F00C94A60DE22FE33659F418
:10182C000E947F100E9486100E947F10A481AA93B0
:10183C000E948D1084C1E53411F0E53609F404C022
:10184C00E63611F00C94740CFE017696EE87FF8749
:10185C000E9495100E9480130E949C100E94A1105F
:10186C00AD85AA2322F0AD89AB3249F017C00E9496
:10187C00A3100E9407110E949C10EDE2ED8B07FF54
:10188C0005C0ED89EA930E948D1008C0EE85FF8596
:10189C003196EE87FF873197AD89A08305FF46E02F
:1018AC00263661F40E94A3100E949A134A93EB8986
:1018BC00FC89FA93EA930E944C0E0BC00E94A31071
:1018CC000E949A134A932A93EC89FD89FA93EA931E
:1018DC004CDEFE0176960E94A8101EC0E33739F448
:1018EC000E94A1100E94B0100E94A8100EC0E037F8
:1018FC00C1F40E94A1100E94B010EE87FF87FA93EA
:10190C00EA930E94FB0D1E2F08600F77403011F0F8
:10191C00411708F001C0142F40E0E0E0EC8B30E000
:10192C006EC0E43611F0E93611F4046002C0E537FC
:10193C00A1F4EAE0EC8B01FF08C0E0E0FAEC6AE904
:10194C007BE30E94B5101AE023C0E0E1F7E260E00F
:10195C0070E00E94B51015E01BC0E83511F408606A
:10196C0004C0E83711F00C94A50DE0E1EC8B01FFFD
:10197C0008C0E0E0F0E060E070E10E94B51018E013
:10198C0007C0E0E0F0E160E070E00E94B51014E008
:10199C00403011F00F7701C041E001FF08C00E94F8
:1019AC00A1100E94951014960E9480130FC002FF84
:1019BC0007C00E94A1100E94B0100E94DC1206C049
:1019CC000E94A1100E94B01066277727EA87FB8738
:1019DC006C877D8702FF12C0AD85AA2342F40E945A
:1019EC00A3100E94BD120E949C10EDE2ED8BED89BC
:1019FC00E03019F01F5F4F5F01C00B7F342F00FDEB
:101A0C0014C0151710F4351708F00FC007FF08C0E5
:101A1C0002FF04C00B7F2D89115001C020E301C0CF
:101A2C0020E20E9476105150ECCF141790F4006114
:101A3C0002FF06C00E94BA1009F0515011504150DB
:101A4C00E0E3EA930E948D10503009F05150415060
:101A5C00ECCF312FEC89E030B9F43030A1F003FF3A
:101A6C0006C0EE85FF852591EE87FF8705C0AE8504
:101A7C00BF852D91AE87BF870E947610503009F03C
:101A8C0051503150EACF51C00E94CE100E941F130A
:101A9C002E2F2A3030F003FF02C0295C01C0295AD6
:101AAC0001C0205D04FD21C0213360F4A889B989EF
:101ABC008A899B89A130E0E0BE07E0E08E07E0E078
:101ACC009E0709F40BC0431740F4531710F000FFA6
:101ADC0001C010C020E207FF08C020E3006102FF34
:101AEC0004C00E94BA1009F051500E947610503078
:101AFC0009F0515031500E94CE100E945E130E948A
:101B0C009C10EC89A889B9898A899B89FF2766274B
:101B1C0077270E941F130E94B510E889F9896A89FA
:101B2C007B890E94AC1309F0AFCF00FF08C0503086
:101B3C0031F05150E0E2EA930E948D10F8CF10E0A2
:101B4C0006CEAE81BF810E947C130E94B713EF9624
:101B5C006F960895FF92F82E26970E94B2130E945A
:101B6C00D710309719F4EFEFFFEF25C0DE01169672
:101B7C000E94B0128D010E94D710EE83FF83E0E02B
:101B8C00E887E987DE011A960E94B0120E947C1346
:101B9C00FA93EA931A930A93E3E8FAE0FA93EA9336
:101BAC00FE013A96FA93EA93B7DD9F01AE81BF81AD
:101BBC00E0E0EC93F9010E94B9132A96FF90089586
:101BCC00E991F991A991B991CD0105900D9200205F
:101BDC00E1F7FC010895A991B991EE27FF276D91CA
:101BEC00662311F03196FBCF0895AA27BB27E99104
:101BFC00F9910590002011F01196FBCFFD0108958D
:101C0C007B816A81F981E88177FB770F67FD7160D1
:101C1C00972F9E5781F078F0983190F4AA27BB2724
:101C2C00882708948795B795A7959A95D1F7EA23B5
:101C3C00FB23682305C0E8947727EE27FF27662748
:101C4C006F77769508F4606877F9A991B9918991C5
:101C5C009991EA17FB076807790797FB08950E948B
:101C6C00E00F0E949A130E94060E0E94951319F41D
:101C7C000E94E00F09C0E6F70E94E00FA0E0B0E080
:101C8C0080E89FE30E94A611249608952497E0E033
:101C9C00E883E983EA83EFE3EB831A930A93EB85FA
:101CAC00FC85EF3FAFEFFA0729F482D2EEE1F3E0C7
:101CBC00BCD18CC0EF3FAFE7FA0729F479D2EFE142
:101CCC00F3E0B3D183C0AC85AA2352F4E985FA853D
:101CDC006B857C850E94071170D274D2EDE2EC9377
:101CEC00A885A73010F0E6E0E8871885E12F1150A1
:101CFC00E03021F06ED2DBD171D2F8CF74D20E94D9
:101D0C00AD115BD210E0E0E0F0E060E87FE366D27A
:101D1C006AD20E94901260F05CD2B6D15FD21F5F83
:101D2C00173228F045D2E3E2F3E07FD14FC0F0CF79
:101D3C00103021F447D2E0E3EC9322C0E12F115094
:101D4C00E030F1F046D2B3D1ABD10E949A130E948D
:101D5C00350E44D248D20E944B120E943A110E2FDB
:101D6C0031D2E02FE05DEC9357D133D20E94DC12DC
:101D7C000E9473110E94FD113FD2A7D11ED2DECF5B
:101D8C00E885E030F9F01ED2EEE2EC93E885E15004
:101D9C00E887EF5FB9F030D277D10FD2E985FA85B9
:101DAC006B857C850E943A110E2F0CD2E02FE05DE2
:101DBC00EC9332D121D20E94DC120E94731185D196
:101DCC00FCD1E4CFAE81BF81E0E0EC9319810881B6
:101DDC002D960895E091AF26F0E0E057F94D089567
:101DEC00E0E1E093460681E08A95F1F7EA81EA9317
:101DFC000C94BE0481E08A95F1F7E0E1E09345068E
:101E0C0087E08A95F1F70895E0E0F0E0FA93EA9321
:101E1C00ECE0F0E0FA93EA930C94DB04E4E0F0E0FD
:101E2C00FA93EA930895FA93EA930C94DB04AA814B
:101E3C00BB81AE0FBF1F0895F0E0FA93EA930E94A6
:101E4C001905F2010895FA93EA93E091B026F09106
:101E5C00B126E157FA4DE0810895F0E0FA93EA9348
:101E6C000C941905E0919426F0E0F0970895FA93FC
:101E7C00EA930C94710AE4E6F0E00E941A13E05D18
:101E8C00EA930C94AD04E4E6F0E00E945013DF01F9
:101E9C00EAE0F0E00E941A13E05DEA930C94AD04C2
:101EAC00EAE0F0E00E945013E05DEA930C94AD047C
:101EBC009801A0E9B6E2A20FB31FAC91AB33089521
:101ECC00A0E9B6E2A20FB31FEC91F0E0E15AFA4D93
:101EDC00E081C3CFEBE0F0E0FA93EA930895E0E100
:101EEC00E0936406E0E0E09364060895EA930E94B0
:101EFC00D104E0E0EA930C94D104E1E0F0E0FA9331
:101F0C00EA93E091B226F091B326FA93EA930895FE
:101F1C00F0E0E15AFA4DE081A0CFE093B226F093C5
:101F2C00B32608951A930A93A0918126B091822624
:101F3C0080918326909184260895E093D226E1E047
:101F4C00F0E0FA93EA93E091D226F0E0FA93EA9368
:101F5C000895E091D226E150F0CFEAE0F0E00E9443
:101F6C005013E157FA4DE08178CFEAE0F0E00E949F
:101F7C001A13E157FA4DE08170CFA091D426B0919D
:101F8C00D5260895E093D426F093D5260895E0E065
:101F9C00E0938126E0938226E0938326E0938426C7
:101FAC000895AC81BD818E819F81EAE0F0E060E014
:101FBC0070E008950E9490130895E0919326F0E04C
:101FCC00F097AAE0EA02F001AE2F4CCFF0E0F097C8
:101FDC0008953197EA0FFB1FD5DF0C941C07E09393
:101FEC00D626F093D72676CFE091D626F091D72639
:101FFC000895FADF3197F3CFF7DFFA93EA93089558
:10200C00E0E0EA930C94D104FF2766277727EF7F53
:10201C00F070607070700895E02FF0E008950E94E9
:10202C007C133196ED93FC930895FA93EA930C94F8
:10203C00E60DAC81BD818E819F81E0E0F0E060E235
:10204C0071E40E94FD11EC83FD836E837F83089500
:10205C00EC81FD816E817F81AC85BD858E859F85F0
:10206C000E9490120895AC85BD858E859F8508953C
:10207C00EDECFCEC6CEC7DE30E94FD11EC87FD8734
:10208C006E877F873F5F0895E0E0F0E060E271E4E7
:10209C000E94FD110895EC87FD876E877F87089558
:1020AC00A0E0B0E080E09FE30E94AD110895EDEC5C
:1020BC00FCEC6CEC7DE30E94FD110895A885B985BC
:1020CC001196A887B987119708950E949F130E94B3
:1020DC00A6110895E885F9853196E887F987089562
:1020EC002A93EF81F885FA93EA93EB85FC850995A1
:1020FC000895FE01E65AFF4F0190F081E02D0895FE
:10210C003497DE01A65ABF4FED93FC930895EF81EF
:10211C00F885FA93EA93EB85FC8509950895DE0121
:10212C00A65ABF4F0D90BC91A02D0895EA87FB874E
:10213C006C877D870895DDDFE3CFEA85FB856C85B1
:10214C007D850895EE87FF87FA93EA930E94F10D3F
:10215C001E2F0895E4DF14960E947C130895E88BDB
:10216C00F98B6A8B7B8B08950B7FED89EA93FE01CB
:10217C00E95AFF4F0190F081E02DFA93EA93FE01AA
:10218C00E55AFF4F0190F081E02D099550300895EC
:10219C00E889F9896A897B89AA85BB858C859D85A7
:1021AC000895DE011C960E94B0120E947C130895C3
:1021BC00EE81FF81FA93EA930895E987FA876B879A
:1021CC007C870895AE81BF811196AE83BF83119732
:1021DC000895AA81BB818C819D810895EA83FB833C
:1021EC006C837D830895EA81FB816C817D81A98557
:1021FC00BA858B859C850895A985BA858B859C8528
:10220C00089530976040704009F070580895552338
:10221C0042F4503811F4E0FF04C03196691F791F65
:10222C006BF050E8572711F45F93CFC05F3F31F04C
:10223C00660F000C57956795752F08955F930020D6
:10224C000AF0CFC0C8C050E8192E1522880F991F6C
:10225C009527550F879550E8072E0522660F771F97
:10226C007527550F67950895689401C0E8945F939E
:10227C00F2DF703818F07F3F08F4A7C056E1571B07
:10228C00AAF4519558300EF4593030F0EFEFFFEFBF
:10229C006FEF7FE777F91AC077275523B9F0EE0F68
:1022AC00FF1F661F771F5A95D1F710C0772758303C
:1022BC0028F0EF2FF62F672F5850F9CF552331F018
:1022CC0076956795F795E7955A95D1F700200AF41E
:1022DC004ED15F910895689401C0E89430976040A6
:1022EC007040B1F0002426F0772312F400943FD113
:1022FC00172E7EE1112032F07A95EE0FFF1F661F2C
:10230C00111CF9CFEF2FF62F612D5F938ADF5F91B0
:10231C0008954F93AF01FD01DA01AB01BC01CA0175
:10232C00402D012C142E4F910895EA0FFB1F681FAE
:10233C000895E095F0956095EF5FFF4F6F4F08950E
:10234C005F9381DF903871F150E8152604C05F93DC
:10235C007ADF903839F1703821F1572F591B2BF156
:10236C0012F4D7DFFACF583118F0AA27BB278827E9
:10237C00583028F0AB2FB82F88275850F9CF552359
:10238C0029F08695B795A7955A95D9F7502D5125D3
:10239C0072F0CBDF38F46795F795E795739513F4E6
:1023AC0020C0B7DF3EDF5F910895D8F7FBCFEA1B63
:1023BC00FB0B680B51F010F40094BBDF662392F317
:1023CC00EE0FFF1F661F7A95CBF7EE27FF276627C8
:1023DC0077275F910895EFEFFFEF6FE77FEF5F9146
:1023EC000895EFEFFFEF6FE77FE75F9108955F933D
:1023FC002ADF703851F3903841F301240894791F87
:10240C0023F41CF300203AF3ECCF0F921F932F937D
:10241C003F934F93112722279927689FA0018F9FE5
:10242C00302D410D591F6B9F300D411D591F8E9F33
:10243C0027D0BF9F25D06A9F23D0BE9F1DD0AF9FB2
:10244C001BD0AE9F110D291F391F491F591FE32F98
:10245C00F42F652F522F4F913F912F911F910F9079
:10246C0066232AF0550FEE1FFF1F661F02C07395DF
:10247C004BF2CDDE5F910895100D211D391F02C066
:10248C00200D311D491F591F08955F93DCDE7038F4
:10249C0021F411200AF49FCFA4CF903809F495CFE2
:1024AC0001240894970B1BF4D4F30020F3CF792F5D
:1024BC001F932F933F934F931124112722273327D8
:1024CC004427552790E2AE17BF078607410730F027
:1024DC00AE1BBF0B860B410B089401C08894551F93
:1024EC00221F331F111CAA1FBB1F881F441F9A9544
:1024FC0051F7F901612D4F913F912F911F91662357
:10250C0032F0550FEE1FFF1F661F7A9543F27FDEE8
:10251C005F91089599239AF0772342F0971748F02A
:10252C0029F4AE17BF07860720F031F098948894F1
:10253C00089598940894089518948894089577238E
:10254C00C2F7971798F3A9F7EA17FB07680788F300
:10255C0099F3ECCF0024AF0DB01D0895EA2BFB2BA3
:10256C00682B792B0895F195E195F0400895F0953D
:10257C0060957095E195FF4F6F4F7F4F0895EE2357
:10258C000E2EFD01BC0131F0EE0FFF1F661F771FF1
:10259C000A94D1F708956E2F7F2FE0E0F0E00895B4
:1025AC00FE2FFF0FFF0B6F2F7F2F08956F2F660FDE
:1025BC00660B762F0895FA9FF02DEB9FF00DEA9F96
:1025CC00E02DF10D08956E2F6A9FF0016B9FF00DB9
:1025DC0008957ED0F0DF0EF4C6DF0895002498E055
:1025EC00AA0F001C0E1A10F40E0E01C0A1609A95D1
:1025FC00B9F7EA2FA02D08955FD0F0DF0EF4E19526
:10260C0008950024112490E1AA0FBB1F001C111C7B
:10261C000E1A1F0A18F40E0E1F1E01C0A1609A9507
:10262C0099F7FD01D001089553D0EBDF0EF49BDF39
:10263C0008953F934F935F9300241124442755270B
:10264C0030E2AA0FBB1F881F991F001C111C441FCE
:10265C00551F0E1A1F0A460B570B28F40E0E1F1E81
:10266C00461F571F01C0A1603A9559F7FD01BC01E7
:10267C00D001CA015F914F913F910895E894A7FF53
:10268C0002C0A1956894E7FDE195A8DFEA2F0EF44E
:10269C00E1950895E894B7FF04C0A095B095119604
:1026AC006894F7FD60DFADDFFD010EF45CDF08958B
:1026BC00C0DFFD01BC010895E894E7FF02C0E1957D
:1026CC006894A7FF04C0A19500F8039400FA08953C
:1026DC00E894F7FF02C047DF6894B7FF06C0A095E7
:1026EC00B095119600F8039400FA0895ED91FC91C1
:1026FC0011970895ED91FD916D917C91139708952B
:10270C00ED91FD916D917D9108957E936E93FE9365
:10271C00EE930895E881F9816A817B810895E883BD
:10272C00F9836A837B8308957A936A93FA93EA9385
:10273C000895182E862F612D192E972F712D1B2E73
:10274C00BF2FF12D1A2EAE2FE12D0895309760403A
:10275C00704008955A934A933A932A931A930A9382
:10276C0008955D814C813B812A81198108810895EE
:00000001FF
